{
  "_format": "hh-sol-artifact-1",
  "contractName": "X1TestCoin",
  "sourceName": "contracts/X1TestCoin.sol",
  "abi": [
    {
      "inputs": [],
      "stateMutability": "nonpayable",
      "type": "constructor"
    },
    {
      "inputs": [
        {
          "internalType": "address",
          "name": "spender",
          "type": "address"
        },
        {
          "internalType": "uint256",
          "name": "allowance",
          "type": "uint256"
        },
        {
          "internalType": "uint256",
          "name": "needed",
          "type": "uint256"
        }
      ],
      "name": "ERC20InsufficientAllowance",
      "type": "error"
    },
    {
      "inputs": [
        {
          "internalType": "address",
          "name": "sender",
          "type": "address"
        },
        {
          "internalType": "uint256",
          "name": "balance",
          "type": "uint256"
        },
        {
          "internalType": "uint256",
          "name": "needed",
          "type": "uint256"
        }
      ],
      "name": "ERC20InsufficientBalance",
      "type": "error"
    },
    {
      "inputs": [
        {
          "internalType": "address",
          "name": "approver",
          "type": "address"
        }
      ],
      "name": "ERC20InvalidApprover",
      "type": "error"
    },
    {
      "inputs": [
        {
          "internalType": "address",
          "name": "receiver",
          "type": "address"
        }
      ],
      "name": "ERC20InvalidReceiver",
      "type": "error"
    },
    {
      "inputs": [
        {
          "internalType": "address",
          "name": "sender",
          "type": "address"
        }
      ],
      "name": "ERC20InvalidSender",
      "type": "error"
    },
    {
      "inputs": [
        {
          "internalType": "address",
          "name": "spender",
          "type": "address"
        }
      ],
      "name": "ERC20InvalidSpender",
      "type": "error"
    },
    {
      "anonymous": false,
      "inputs": [
        {
          "indexed": true,
          "internalType": "address",
          "name": "owner",
          "type": "address"
        },
        {
          "indexed": true,
          "internalType": "address",
          "name": "spender",
          "type": "address"
        },
        {
          "indexed": false,
          "internalType": "uint256",
          "name": "value",
          "type": "uint256"
        }
      ],
      "name": "Approval",
      "type": "event"
    },
    {
      "anonymous": false,
      "inputs": [
        {
          "indexed": true,
          "internalType": "address",
          "name": "from",
          "type": "address"
        },
        {
          "indexed": true,
          "internalType": "address",
          "name": "to",
          "type": "address"
        },
        {
          "indexed": false,
          "internalType": "uint256",
          "name": "value",
          "type": "uint256"
        }
      ],
      "name": "Transfer",
      "type": "event"
    },
    {
      "inputs": [
        {
          "internalType": "address",
          "name": "owner",
          "type": "address"
        },
        {
          "internalType": "address",
          "name": "spender",
          "type": "address"
        }
      ],
      "name": "allowance",
      "outputs": [
        {
          "internalType": "uint256",
          "name": "",
          "type": "uint256"
        }
      ],
      "stateMutability": "view",
      "type": "function"
    },
    {
      "inputs": [
        {
          "internalType": "address",
          "name": "spender",
          "type": "address"
        },
        {
          "internalType": "uint256",
          "name": "value",
          "type": "uint256"
        }
      ],
      "name": "approve",
      "outputs": [
        {
          "internalType": "bool",
          "name": "",
          "type": "bool"
        }
      ],
      "stateMutability": "nonpayable",
      "type": "function"
    },
    {
      "inputs": [
        {
          "internalType": "address",
          "name": "account",
          "type": "address"
        }
      ],
      "name": "balanceOf",
      "outputs": [
        {
          "internalType": "uint256",
          "name": "",
          "type": "uint256"
        }
      ],
      "stateMutability": "view",
      "type": "function"
    },
    {
      "inputs": [],
      "name": "decimals",
      "outputs": [
        {
          "internalType": "uint8",
          "name": "",
          "type": "uint8"
        }
      ],
      "stateMutability": "view",
      "type": "function"
    },
    {
      "inputs": [
        {
          "internalType": "address",
          "name": "to",
          "type": "address"
        },
        {
          "internalType": "uint256",
          "name": "amount",
          "type": "uint256"
        }
      ],
      "name": "mint",
      "outputs": [],
      "stateMutability": "nonpayable",
      "type": "function"
    },
    {
      "inputs": [],
      "name": "name",
      "outputs": [
        {
          "internalType": "string",
          "name": "",
          "type": "string"
        }
      ],
      "stateMutability": "view",
      "type": "function"
    },
    {
      "inputs": [
        {
          "internalType": "address",
          "name": "_stakingContract",
          "type": "address"
        }
      ],
      "name": "setStakingContract",
      "outputs": [],
      "stateMutability": "nonpayable",
      "type": "function"
    },
    {
      "inputs": [],
      "name": "stakingContract",
      "outputs": [
        {
          "internalType": "address",
          "name": "",
          "type": "address"
        }
      ],
      "stateMutability": "view",
      "type": "function"
    },
    {
      "inputs": [],
      "name": "symbol",
      "outputs": [
        {
          "internalType": "string",
          "name": "",
          "type": "string"
        }
      ],
      "stateMutability": "view",
      "type": "function"
    },
    {
      "inputs": [],
      "name": "totalSupply",
      "outputs": [
        {
          "internalType": "uint256",
          "name": "",
          "type": "uint256"
        }
      ],
      "stateMutability": "view",
      "type": "function"
    },
    {
      "inputs": [
        {
          "internalType": "address",
          "name": "recipient",
          "type": "address"
        },
        {
          "internalType": "uint256",
          "name": "amount",
          "type": "uint256"
        }
      ],
      "name": "transfer",
      "outputs": [
        {
          "internalType": "bool",
          "name": "",
          "type": "bool"
        }
      ],
      "stateMutability": "nonpayable",
      "type": "function"
    },
    {
      "inputs": [
        {
          "internalType": "address",
          "name": "sender",
          "type": "address"
        },
        {
          "internalType": "address",
          "name": "recipient",
          "type": "address"
        },
        {
          "internalType": "uint256",
          "name": "amount",
          "type": "uint256"
        }
      ],
      "name": "transferFrom",
      "outputs": [
        {
          "internalType": "bool",
          "name": "",
          "type": "bool"
        }
      ],
      "stateMutability": "nonpayable",
      "type": "function"
    }
  ],
  "bytecode": "0x60806040523480156200001157600080fd5b506040518060400160405280600a81526020017f583154657374436f696e000000000000000000000000000000000000000000008152506040518060400160405280600381526020017f583154000000000000000000000000000000000000000000000000000000000081525081600390816200008f919062000629565b508060049081620000a1919062000629565b505050620000e333620000b9620000e960201b60201c565b600a620000c79190620008a0565b620f4240620000d79190620008f1565b620000f260201b60201c565b62000a44565b60006012905090565b600073ffffffffffffffffffffffffffffffffffffffff168273ffffffffffffffffffffffffffffffffffffffff1603620001675760006040517fec442f050000000000000000000000000000000000000000000000000000000081526004016200015e919062000981565b60405180910390fd5b6200017b600083836200017f60201b60201c565b5050565b600073ffffffffffffffffffffffffffffffffffffffff168373ffffffffffffffffffffffffffffffffffffffff1603620001d5578060026000828254620001c891906200099e565b92505081905550620002ab565b60008060008573ffffffffffffffffffffffffffffffffffffffff1673ffffffffffffffffffffffffffffffffffffffff1681526020019081526020016000205490508181101562000264578381836040517fe450d38c0000000000000000000000000000000000000000000000000000000081526004016200025b93929190620009ea565b60405180910390fd5b8181036000808673ffffffffffffffffffffffffffffffffffffffff1673ffffffffffffffffffffffffffffffffffffffff16815260200190815260200160002081905550505b600073ffffffffffffffffffffffffffffffffffffffff168273ffffffffffffffffffffffffffffffffffffffff1603620002f6578060026000828254039250508190555062000343565b806000808473ffffffffffffffffffffffffffffffffffffffff1673ffffffffffffffffffffffffffffffffffffffff168152602001908152602001600020600082825401925050819055505b8173ffffffffffffffffffffffffffffffffffffffff168373ffffffffffffffffffffffffffffffffffffffff167fddf252ad1be2c89b69c2b068fc378daa952ba7f163c4a11628f55a4df523b3ef83604051620003a2919062000a27565b60405180910390a3505050565b600081519050919050565b7f4e487b7100000000000000000000000000000000000000000000000000000000600052604160045260246000fd5b7f4e487b7100000000000000000000000000000000000000000000000000000000600052602260045260246000fd5b600060028204905060018216806200043157607f821691505b602082108103620004475762000446620003e9565b5b50919050565b60008190508160005260206000209050919050565b60006020601f8301049050919050565b600082821b905092915050565b600060088302620004b17fffffffffffffffffffffffffffffffffffffffffffffffffffffffffffffffff8262000472565b620004bd868362000472565b95508019841693508086168417925050509392505050565b6000819050919050565b6000819050919050565b60006200050a62000504620004fe84620004d5565b620004df565b620004d5565b9050919050565b6000819050919050565b6200052683620004e9565b6200053e620005358262000511565b8484546200047f565b825550505050565b600090565b6200055562000546565b620005628184846200051b565b505050565b5b818110156200058a576200057e6000826200054b565b60018101905062000568565b5050565b601f821115620005d957620005a3816200044d565b620005ae8462000462565b81016020851015620005be578190505b620005d6620005cd8562000462565b83018262000567565b50505b505050565b600082821c905092915050565b6000620005fe60001984600802620005de565b1980831691505092915050565b6000620006198383620005eb565b9150826002028217905092915050565b6200063482620003af565b67ffffffffffffffff81111562000650576200064f620003ba565b5b6200065c825462000418565b620006698282856200058e565b600060209050601f831160018114620006a157600084156200068c578287015190505b6200069885826200060b565b86555062000708565b601f198416620006b1866200044d565b60005b82811015620006db57848901518255600182019150602085019450602081019050620006b4565b86831015620006fb5784890151620006f7601f891682620005eb565b8355505b6001600288020188555050505b505050505050565b7f4e487b7100000000000000000000000000000000000000000000000000000000600052601160045260246000fd5b60008160011c9050919050565b6000808291508390505b60018511156200079e5780860481111562000776576200077562000710565b5b6001851615620007865780820291505b808102905062000796856200073f565b945062000756565b94509492505050565b600082620007b957600190506200088c565b81620007c957600090506200088c565b8160018114620007e25760028114620007ed5762000823565b60019150506200088c565b60ff84111562000802576200080162000710565b5b8360020a9150848211156200081c576200081b62000710565b5b506200088c565b5060208310610133831016604e8410600b84101617156200085d5782820a90508381111562000857576200085662000710565b5b6200088c565b6200086c84848460016200074c565b9250905081840481111562000886576200088562000710565b5b81810290505b9392505050565b600060ff82169050919050565b6000620008ad82620004d5565b9150620008ba8362000893565b9250620008e97fffffffffffffffffffffffffffffffffffffffffffffffffffffffffffffffff8484620007a7565b905092915050565b6000620008fe82620004d5565b91506200090b83620004d5565b92508282026200091b81620004d5565b9150828204841483151762000935576200093462000710565b5b5092915050565b600073ffffffffffffffffffffffffffffffffffffffff82169050919050565b600062000969826200093c565b9050919050565b6200097b816200095c565b82525050565b600060208201905062000998600083018462000970565b92915050565b6000620009ab82620004d5565b9150620009b883620004d5565b9250828201905080821115620009d357620009d262000710565b5b92915050565b620009e481620004d5565b82525050565b600060608201905062000a01600083018662000970565b62000a106020830185620009d9565b62000a1f6040830184620009d9565b949350505050565b600060208201905062000a3e6000830184620009d9565b92915050565b61152c8062000a546000396000f3fe608060405234801561001057600080fd5b50600436106100b45760003560e01c806370a082311161007157806370a082311461018f57806395d89b41146101bf5780639dd373b9146101dd578063a9059cbb146101f9578063dd62ed3e14610229578063ee99205c14610259576100b4565b806306fdde03146100b9578063095ea7b3146100d757806318160ddd1461010757806323b872dd14610125578063313ce5671461015557806340c10f1914610173575b600080fd5b6100c1610277565b6040516100ce9190610fd2565b60405180910390f35b6100f160048036038101906100ec919061108d565b610309565b6040516100fe91906110e8565b60405180910390f35b61010f61032c565b60405161011c9190611112565b60405180910390f35b61013f600480360381019061013a919061112d565b610336565b60405161014c91906110e8565b60405180910390f35b61015d6104be565b60405161016a919061119c565b60405180910390f35b61018d6004803603810190610188919061108d565b6104c7565b005b6101a960048036038101906101a491906111b7565b610565565b6040516101b69190611112565b60405180910390f35b6101c76105ad565b6040516101d49190610fd2565b60405180910390f35b6101f760048036038101906101f291906111b7565b61063f565b005b610213600480360381019061020e919061108d565b610683565b60405161022091906110e8565b60405180910390f35b610243600480360381019061023e91906111e4565b6107a1565b6040516102509190611112565b60405180910390f35b610261610828565b60405161026e9190611233565b60405180910390f35b6060600380546102869061127d565b80601f01602080910402602001604051908101604052809291908181526020018280546102b29061127d565b80156102ff5780601f106102d4576101008083540402835291602001916102ff565b820191906000526020600020905b8154815290600101906020018083116102e257829003601f168201915b5050505050905090565b60008061031461084e565b9050610321818585610856565b600191505092915050565b6000600254905090565b6000600560009054906101000a900473ffffffffffffffffffffffffffffffffffffffff1673ffffffffffffffffffffffffffffffffffffffff168473ffffffffffffffffffffffffffffffffffffffff1614806103e15750600560009054906101000a900473ffffffffffffffffffffffffffffffffffffffff1673ffffffffffffffffffffffffffffffffffffffff168373ffffffffffffffffffffffffffffffffffffffff16145b156103f8576103f1848484610868565b90506104b7565b6000606460058461040991906112dd565b610413919061134e565b905060008184610423919061137f565b905060006104388761043361084e565b6107a1565b90508481101561047d576040517f08c379a0000000000000000000000000000000000000000000000000000000008152600401610474906113ff565b60405180910390fd5b61049a8761048961084e565b8784610495919061137f565b610856565b6104a5878784610897565b6104af878461098b565b600193505050505b9392505050565b60006012905090565b600560009054906101000a900473ffffffffffffffffffffffffffffffffffffffff1673ffffffffffffffffffffffffffffffffffffffff163373ffffffffffffffffffffffffffffffffffffffff1614610557576040517f08c379a000000000000000000000000000000000000000000000000000000000815260040161054e9061146b565b60405180910390fd5b6105618282610a0d565b5050565b60008060008373ffffffffffffffffffffffffffffffffffffffff1673ffffffffffffffffffffffffffffffffffffffff168152602001908152602001600020549050919050565b6060600480546105bc9061127d565b80601f01602080910402602001604051908101604052809291908181526020018280546105e89061127d565b80156106355780601f1061060a57610100808354040283529160200191610635565b820191906000526020600020905b81548152906001019060200180831161061857829003601f168201915b5050505050905090565b80600560006101000a81548173ffffffffffffffffffffffffffffffffffffffff021916908373ffffffffffffffffffffffffffffffffffffffff16021790555050565b6000600560009054906101000a900473ffffffffffffffffffffffffffffffffffffffff1673ffffffffffffffffffffffffffffffffffffffff163373ffffffffffffffffffffffffffffffffffffffff16148061072e5750600560009054906101000a900473ffffffffffffffffffffffffffffffffffffffff1673ffffffffffffffffffffffffffffffffffffffff168373ffffffffffffffffffffffffffffffffffffffff16145b156107445761073d8383610a8f565b905061079b565b6000606460058461075591906112dd565b61075f919061134e565b90506000818461076f919061137f565b905061078361077c61084e565b8683610897565b61079461078e61084e565b8361098b565b6001925050505b92915050565b6000600160008473ffffffffffffffffffffffffffffffffffffffff1673ffffffffffffffffffffffffffffffffffffffff16815260200190815260200160002060008373ffffffffffffffffffffffffffffffffffffffff1673ffffffffffffffffffffffffffffffffffffffff16815260200190815260200160002054905092915050565b600560009054906101000a900473ffffffffffffffffffffffffffffffffffffffff1681565b600033905090565b6108638383836001610ab2565b505050565b60008061087361084e565b9050610880858285610c89565b61088b858585610897565b60019150509392505050565b600073ffffffffffffffffffffffffffffffffffffffff168373ffffffffffffffffffffffffffffffffffffffff16036109095760006040517f96c6fd1e0000000000000000000000000000000000000000000000000000000081526004016109009190611233565b60405180910390fd5b600073ffffffffffffffffffffffffffffffffffffffff168273ffffffffffffffffffffffffffffffffffffffff160361097b5760006040517fec442f050000000000000000000000000000000000000000000000000000000081526004016109729190611233565b60405180910390fd5b610986838383610d1d565b505050565b600073ffffffffffffffffffffffffffffffffffffffff168273ffffffffffffffffffffffffffffffffffffffff16036109fd5760006040517f96c6fd1e0000000000000000000000000000000000000000000000000000000081526004016109f49190611233565b60405180910390fd5b610a0982600083610d1d565b5050565b600073ffffffffffffffffffffffffffffffffffffffff168273ffffffffffffffffffffffffffffffffffffffff1603610a7f5760006040517fec442f05000000000000000000000000000000000000000000000000000000008152600401610a769190611233565b60405180910390fd5b610a8b60008383610d1d565b5050565b600080610a9a61084e565b9050610aa7818585610897565b600191505092915050565b600073ffffffffffffffffffffffffffffffffffffffff168473ffffffffffffffffffffffffffffffffffffffff1603610b245760006040517fe602df05000000000000000000000000000000000000000000000000000000008152600401610b1b9190611233565b60405180910390fd5b600073ffffffffffffffffffffffffffffffffffffffff168373ffffffffffffffffffffffffffffffffffffffff1603610b965760006040517f94280d62000000000000000000000000000000000000000000000000000000008152600401610b8d9190611233565b60405180910390fd5b81600160008673ffffffffffffffffffffffffffffffffffffffff1673ffffffffffffffffffffffffffffffffffffffff16815260200190815260200160002060008573ffffffffffffffffffffffffffffffffffffffff1673ffffffffffffffffffffffffffffffffffffffff168152602001908152602001600020819055508015610c83578273ffffffffffffffffffffffffffffffffffffffff168473ffffffffffffffffffffffffffffffffffffffff167f8c5be1e5ebec7d5bd14f71427d1e84f3dd0314c0f7b2291e5b200ac8c7c3b92584604051610c7a9190611112565b60405180910390a35b50505050565b6000610c9584846107a1565b90507fffffffffffffffffffffffffffffffffffffffffffffffffffffffffffffffff8114610d175781811015610d07578281836040517ffb8f41b2000000000000000000000000000000000000000000000000000000008152600401610cfe9392919061148b565b60405180910390fd5b610d1684848484036000610ab2565b5b50505050565b600073ffffffffffffffffffffffffffffffffffffffff168373ffffffffffffffffffffffffffffffffffffffff1603610d6f578060026000828254610d6391906114c2565b92505081905550610e42565b60008060008573ffffffffffffffffffffffffffffffffffffffff1673ffffffffffffffffffffffffffffffffffffffff16815260200190815260200160002054905081811015610dfb578381836040517fe450d38c000000000000000000000000000000000000000000000000000000008152600401610df29392919061148b565b60405180910390fd5b8181036000808673ffffffffffffffffffffffffffffffffffffffff1673ffffffffffffffffffffffffffffffffffffffff16815260200190815260200160002081905550505b600073ffffffffffffffffffffffffffffffffffffffff168273ffffffffffffffffffffffffffffffffffffffff1603610e8b5780600260008282540392505081905550610ed8565b806000808473ffffffffffffffffffffffffffffffffffffffff1673ffffffffffffffffffffffffffffffffffffffff168152602001908152602001600020600082825401925050819055505b8173ffffffffffffffffffffffffffffffffffffffff168373ffffffffffffffffffffffffffffffffffffffff167fddf252ad1be2c89b69c2b068fc378daa952ba7f163c4a11628f55a4df523b3ef83604051610f359190611112565b60405180910390a3505050565b600081519050919050565b600082825260208201905092915050565b60005b83811015610f7c578082015181840152602081019050610f61565b60008484015250505050565b6000601f19601f8301169050919050565b6000610fa482610f42565b610fae8185610f4d565b9350610fbe818560208601610f5e565b610fc781610f88565b840191505092915050565b60006020820190508181036000830152610fec8184610f99565b905092915050565b600080fd5b600073ffffffffffffffffffffffffffffffffffffffff82169050919050565b600061102482610ff9565b9050919050565b61103481611019565b811461103f57600080fd5b50565b6000813590506110518161102b565b92915050565b6000819050919050565b61106a81611057565b811461107557600080fd5b50565b60008135905061108781611061565b92915050565b600080604083850312156110a4576110a3610ff4565b5b60006110b285828601611042565b92505060206110c385828601611078565b9150509250929050565b60008115159050919050565b6110e2816110cd565b82525050565b60006020820190506110fd60008301846110d9565b92915050565b61110c81611057565b82525050565b60006020820190506111276000830184611103565b92915050565b60008060006060848603121561114657611145610ff4565b5b600061115486828701611042565b935050602061116586828701611042565b925050604061117686828701611078565b9150509250925092565b600060ff82169050919050565b61119681611180565b82525050565b60006020820190506111b1600083018461118d565b92915050565b6000602082840312156111cd576111cc610ff4565b5b60006111db84828501611042565b91505092915050565b600080604083850312156111fb576111fa610ff4565b5b600061120985828601611042565b925050602061121a85828601611042565b9150509250929050565b61122d81611019565b82525050565b60006020820190506112486000830184611224565b92915050565b7f4e487b7100000000000000000000000000000000000000000000000000000000600052602260045260246000fd5b6000600282049050600182168061129557607f821691505b6020821081036112a8576112a761124e565b5b50919050565b7f4e487b7100000000000000000000000000000000000000000000000000000000600052601160045260246000fd5b60006112e882611057565b91506112f383611057565b925082820261130181611057565b91508282048414831517611318576113176112ae565b5b5092915050565b7f4e487b7100000000000000000000000000000000000000000000000000000000600052601260045260246000fd5b600061135982611057565b915061136483611057565b9250826113745761137361131f565b5b828204905092915050565b600061138a82611057565b915061139583611057565b92508282039050818111156113ad576113ac6112ae565b5b92915050565b7f45524332303a20696e73756666696369656e7420616c6c6f77616e6365000000600082015250565b60006113e9601d83610f4d565b91506113f4826113b3565b602082019050919050565b60006020820190508181036000830152611418816113dc565b9050919050565b7f4e6f7420617574686f72697a6564000000000000000000000000000000000000600082015250565b6000611455600e83610f4d565b91506114608261141f565b602082019050919050565b6000602082019050818103600083015261148481611448565b9050919050565b60006060820190506114a06000830186611224565b6114ad6020830185611103565b6114ba6040830184611103565b949350505050565b60006114cd82611057565b91506114d883611057565b92508282019050808211156114f0576114ef6112ae565b5b9291505056fea2646970667358221220678ee874bfdf1fc17dec80bca30d5da2aa0993dc15905ea858031a136faa77e464736f6c63430008180033",
  "linkReferences": {},
  "deployedLinkReferences": {}
}