{
  "_format": "hh-sol-artifact-1",
  "contractName": "Staking",
  "sourceName": "contracts/Staking.sol",
  "abi": [
    {
      "inputs": [
        {
          "internalType": "address",
          "name": "_token",
          "type": "address"
        }
      ],
      "stateMutability": "nonpayable",
      "type": "constructor"
    },
    {
      "inputs": [
        {
          "internalType": "uint256",
          "name": "_amount",
          "type": "uint256"
        }
      ],
      "name": "stake",
      "outputs": [],
      "stateMutability": "nonpayable",
      "type": "function"
    },
    {
      "inputs": [
        {
          "internalType": "address",
          "name": "",
          "type": "address"
        }
      ],
      "name": "stakes",
      "outputs": [
        {
          "internalType": "uint256",
          "name": "amount",
          "type": "uint256"
        },
        {
          "internalType": "uint256",
          "name": "timestamp",
          "type": "uint256"
        }
      ],
      "stateMutability": "view",
      "type": "function"
    },
    {
      "inputs": [],
      "name": "token",
      "outputs": [
        {
          "internalType": "contract IERC20",
          "name": "",
          "type": "address"
        }
      ],
      "stateMutability": "view",
      "type": "function"
    },
    {
      "inputs": [],
      "name": "unstake",
      "outputs": [],
      "stateMutability": "nonpayable",
      "type": "function"
    }
  ],
  "bytecode": "0x608060405234801561001057600080fd5b50604051610b7a380380610b7a833981810160405281019061003291906100db565b806000806101000a81548173ffffffffffffffffffffffffffffffffffffffff021916908373ffffffffffffffffffffffffffffffffffffffff16021790555050610108565b600080fd5b600073ffffffffffffffffffffffffffffffffffffffff82169050919050565b60006100a88261007d565b9050919050565b6100b88161009d565b81146100c357600080fd5b50565b6000815190506100d5816100af565b92915050565b6000602082840312156100f1576100f0610078565b5b60006100ff848285016100c6565b91505092915050565b610a63806101176000396000f3fe608060405234801561001057600080fd5b506004361061004c5760003560e01c806316934fc4146100515780632def662014610082578063a694fc3a1461008c578063fc0c546a146100a8575b600080fd5b61006b600480360381019061006691906105bd565b6100c6565b604051610079929190610603565b60405180910390f35b61008a6100ea565b005b6100a660048036038101906100a19190610658565b6103a6565b005b6100b0610536565b6040516100bd91906106e4565b60405180910390f35b60016020528060005260406000206000915090508060000154908060010154905082565b6000600160003373ffffffffffffffffffffffffffffffffffffffff1673ffffffffffffffffffffffffffffffffffffffff1681526020019081526020016000206040518060400160405290816000820154815260200160018201548152505090506000816000015111610193576040517f08c379a000000000000000000000000000000000000000000000000000000000815260040161018a9061075c565b60405180910390fd5b60008160200151426101a591906107ab565b9050600062015180826101b8919061080e565b9050600060648285600001516101ce919061083f565b6101d8919061080e565b9050600084600001519050600160003373ffffffffffffffffffffffffffffffffffffffff1673ffffffffffffffffffffffffffffffffffffffff1681526020019081526020016000206000808201600090556001820160009055505060008054906101000a900473ffffffffffffffffffffffffffffffffffffffff1673ffffffffffffffffffffffffffffffffffffffff1663a9059cbb33836040518363ffffffff1660e01b8152600401610290929190610890565b6020604051808303816000875af11580156102af573d6000803e3d6000fd5b505050506040513d601f19601f820116820180604052508101906102d391906108f1565b610312576040517f08c379a00000000000000000000000000000000000000000000000000000000081526004016103099061096a565b60405180910390fd5b60008054906101000a900473ffffffffffffffffffffffffffffffffffffffff1673ffffffffffffffffffffffffffffffffffffffff166340c10f1933846040518363ffffffff1660e01b815260040161036d929190610890565b600060405180830381600087803b15801561038757600080fd5b505af115801561039b573d6000803e3d6000fd5b505050505050505050565b600081116103e9576040517f08c379a00000000000000000000000000000000000000000000000000000000081526004016103e0906109d6565b60405180910390fd5b60008054906101000a900473ffffffffffffffffffffffffffffffffffffffff1673ffffffffffffffffffffffffffffffffffffffff166323b872dd3330846040518463ffffffff1660e01b8152600401610446939291906109f6565b6020604051808303816000875af1158015610465573d6000803e3d6000fd5b505050506040513d601f19601f8201168201806040525081019061048991906108f1565b6104c8576040517f08c379a00000000000000000000000000000000000000000000000000000000081526004016104bf9061096a565b60405180910390fd5b604051806040016040528082815260200142815250600160003373ffffffffffffffffffffffffffffffffffffffff1673ffffffffffffffffffffffffffffffffffffffff168152602001908152602001600020600082015181600001556020820151816001015590505050565b60008054906101000a900473ffffffffffffffffffffffffffffffffffffffff1681565b600080fd5b600073ffffffffffffffffffffffffffffffffffffffff82169050919050565b600061058a8261055f565b9050919050565b61059a8161057f565b81146105a557600080fd5b50565b6000813590506105b781610591565b92915050565b6000602082840312156105d3576105d261055a565b5b60006105e1848285016105a8565b91505092915050565b6000819050919050565b6105fd816105ea565b82525050565b600060408201905061061860008301856105f4565b61062560208301846105f4565b9392505050565b610635816105ea565b811461064057600080fd5b50565b6000813590506106528161062c565b92915050565b60006020828403121561066e5761066d61055a565b5b600061067c84828501610643565b91505092915050565b6000819050919050565b60006106aa6106a56106a08461055f565b610685565b61055f565b9050919050565b60006106bc8261068f565b9050919050565b60006106ce826106b1565b9050919050565b6106de816106c3565b82525050565b60006020820190506106f960008301846106d5565b92915050565b600082825260208201905092915050565b7f4e6f20746f6b656e73207374616b656400000000000000000000000000000000600082015250565b60006107466010836106ff565b915061075182610710565b602082019050919050565b6000602082019050818103600083015261077581610739565b9050919050565b7f4e487b7100000000000000000000000000000000000000000000000000000000600052601160045260246000fd5b60006107b6826105ea565b91506107c1836105ea565b92508282039050818111156107d9576107d861077c565b5b92915050565b7f4e487b7100000000000000000000000000000000000000000000000000000000600052601260045260246000fd5b6000610819826105ea565b9150610824836105ea565b925082610834576108336107df565b5b828204905092915050565b600061084a826105ea565b9150610855836105ea565b9250828202610863816105ea565b9150828204841483151761087a5761087961077c565b5b5092915050565b61088a8161057f565b82525050565b60006040820190506108a56000830185610881565b6108b260208301846105f4565b9392505050565b60008115159050919050565b6108ce816108b9565b81146108d957600080fd5b50565b6000815190506108eb816108c5565b92915050565b6000602082840312156109075761090661055a565b5b6000610915848285016108dc565b91505092915050565b7f5472616e73666572206661696c65640000000000000000000000000000000000600082015250565b6000610954600f836106ff565b915061095f8261091e565b602082019050919050565b6000602082019050818103600083015261098381610947565b9050919050565b7f43616e6e6f74207374616b65203020746f6b656e730000000000000000000000600082015250565b60006109c06015836106ff565b91506109cb8261098a565b602082019050919050565b600060208201905081810360008301526109ef816109b3565b9050919050565b6000606082019050610a0b6000830186610881565b610a186020830185610881565b610a2560408301846105f4565b94935050505056fea2646970667358221220c536a7bc2b02341de09c7489fa341d0e411f39cb5f73e38bf393d1273f7ac35f64736f6c63430008180033",
  "linkReferences": {},
  "deployedLinkReferences": {}
}